:020000040800F2
:1000000000500020F1130008690200086B0200088C
:100010006D0200086F020008710200080000000075
:100020000000000000000000000000007302000853
:10003000750200080000000077020008790200083D
:10004000391400083914000839140008391400085C
:10005000391400083914000839140008391400084C
:10006000391400083914000839140008391400083C
:10007000391400083914000839140008391400082C
:10008000391400083914000839140008391400081C
:10009000391400083914000839140008391400080C
:1000A00039140008391400083914000839140008FC
:1000B00039140008391400083914000839140008EC
:1000C00039140008391400083914000839140008DC
:1000D00039140008391400083914000839140008CC
:1000E0003914000839140008391400080000000011
:1000F0000000000000000000000000000000000000
:0C01000000000000000000005FF808F1A3
:10010C0010B5054C237833B9044B13B10448AFF345
:10011C0000800123237010BD0C00002000000000A3
:10012C009414000808B5034B1BB103490348AFF303
:10013C00008008BD0000000010000020941400088E
:10014C0072B6FEE710B590B006AC2822002120460E
:10015C0001F06DF90023019302930393049305932B
:10016C00012206924FF4803307930A9202220D92D9
:10017C000E934FF4E0130F93204600F0FBF870B988
:10018C000F2301930221029103904FF48062049299
:10019C00059001A800F00EFB18B910B010BDFFF7C8
:1001AC00CFFFFFF7CDFF000000B585B000F0A8F839
:1001BC00FFF7C8FF00F0AEFE1E4C009402258DF830
:1001CC0004504FF4E133029300238DF80C308DF87A
:1001DC000D308DF80E308DF80F30684600F03AFF78
:1001EC001549204600F08CFF00F000FC1349204616
:1001FC0000F086FF0121124800F07CFC052111481B
:10020C0000F078FC0321104800F074FC29460F48DC
:10021C0000F070FC04210E4800F06CFC0D492046E7
:10022C0000F06EFF00F0FEFB0B49204600F068FF6B
:10023C00FEE700BF00380140AC140008C4140008ED
:10024C0025110008391100084D1100086111000832
:10025C0075110008DC140008F0140008FEE7FEE736
:10026C00FEE7FEE7FEE770477047704708B500F001
:10027C0059F808BD82B00E4B9A6942F001029A619E
:10028C009A6902F001020092009ADA6942F08052F7
:10029C00DA61DB6903F080530193019B054A5368D3
:1002AC0023F0E06343F08063536002B0704700BFFB
:1002BC00001002400000014010B504460D4B1868B8
:1002CC000D4B1A784FF47A73B3FBF2F3B0FBF3F0E7
:1002DC0000F076FB08B90F2C01D9012010BD0246A5
:1002EC0021464FF0FF3000F05BFB044B1C600020FC
:1002FC00F4E700BF080000200000002004000020EC
:10030C0008B5074A136843F010031360032000F08C
:10031C0035FB0F20FFF7D0FFFFF7ACFF002008BD27
:10032C0000200240034A1168034B1B780B441360F6
:10033C00704700BF2800002000000020014B186807
:10034C00704700BF2800002082B0084B1B68084A89
:10035C00A2FB03235B0A00FB03F3019300BF019B89
:10036C005A1E0192002BF9D102B0704708000020F0
:10037C00D34D6210002800F0EC8170B582B00446B9
:10038C00036813F0010F2DD0984B5B6803F00C033E
:10039C00042B1FD0954B5B6803F00C03082B14D077
:1003AC006368B3F5803F41D0002B54D103F18043F7
:1003BC0003F504331A6822F480321A601A6822F4A6
:1003CC0080221A6037E001209BE0884B5B6813F4B5
:1003DC00803FE5D0854B1B6813F4003F02D0636867
:1003EC00002BF0D0236813F0020F71D07F4B5B68A9
:1003FC0013F00C0F5CD07D4B5B6803F00C03082BE7
:10040C0051D02369002B00F08780794B01221A60B0
:10041C00FFF794FF0546754B1B6813F0020F72D162
:10042C00FFF78CFF401B0228F5D969E06F4A13686F
:10043C0043F48033136063683BB3FFF77FFF0546DB
:10044C006A4B1B6813F4003FCCD1FFF777FF401BBE
:10045C006428F5D954E0B3F5A02F09D0634B1A6882
:10046C0022F480321A601A6822F480221A60E2E7C1
:10047C0003F18043A3F53C331A6842F480221A60DE
:10048C001A6842F480321A60D5E7FFF757FF054629
:10049C00564B1B6813F4003FA4D0FFF74FFF401BD3
:1004AC006428F5D92CE0514B5B6813F4803FA8D13C
:1004BC004E4B1B6813F0020F02D02369012B82D123
:1004CC004A4A136823F0F803616943EAC1031360D5
:1004DC00236813F0080F33D0A369002B5DD0444B75
:1004EC000122C3F88024FFF729FF05463F4B5B6AC6
:1004FC0013F0020F21D1FFF721FF401B0228F5D981
:10050C00032002B070BD394A136823F0F803616907
:10051C0043EAC1031360DBE7354B00221A60FFF797
:10052C000DFF0546314B1B6813F0020FD0D0FFF7BF
:10053C0005FF401B0228F5D9E2E70120FFF704FF75
:10054C00236813F0040F00F09580284BDB6913F03F
:10055C00805F34D1254BDA6942F08052DA61DB6975
:10056C0003F080530193019B01231E46214B1B6812
:10057C0013F4807F26D0E368012B3DD0002B52D1A1
:10058C0003F1804303F504331A6A22F001021A6264
:10059C001A6A22F004021A6233E0154B0022C3F8E7
:1005AC008024FFF7CBFE0546104B5B6A13F0020F5D
:1005BC00C6D0FFF7C3FE401B0228F5D9A0E70023E5
:1005CC001E46D3E70B4A136843F480731360FFF79E
:1005DC00B5FE0546074B1B6813F4807FCBD1FFF7A4
:1005EC00ADFE401B6428F5D98AE700BF001002401D
:1005FC000000424200700040574A136A43F0010366
:10060C001362E3682BB3FFF799FE0546524B1B6A46
:10061C0013F0020F2DD1FFF791FE401B41F28833EE
:10062C009842F3D96CE7052B09D04B4B1A6A22F090
:10063C0001021A621A6A22F004021A62E1E7464BBE
:10064C001A6A42F004021A621A6A42F001021A6231
:10065C00D7E7FFF773FE05463F4B1B6A13F0020FFB
:10066C0007D0FFF76BFE401B41F288339842F3D959
:10067C0046E7DEB9E369002B55D0374A526802F0E1
:10068C000C02082A51D0022B16D0344B00221A66C9
:10069C00FFF754FE0446304B1B6813F0007F42D02A
:1006AC00FFF74CFE001B0228F5D929E72A4AD3692B
:1006BC0023F08053D361DDE7284B00221A66FFF745
:1006CC003DFE0546244B1B6813F0007F05D0FFF759
:1006DC0035FE401B0228F5D912E7236AB3F5803F9B
:1006EC0019D01D494B6823F47413226A606A0243C3
:1006FC0013434B60194B01221A66FFF71FFE044689
:10070C00154B1B6813F0007F0DD1FFF717FE001B74
:10071C000228F5D9F4E6104A536823F40033A16893
:10072C000B435360DDE70020EBE6012B3FF44BAEAF
:10073C00094B5B6803F48031226A91427FF443AE2B
:10074C0003F47013626A934201D10020D9E60120B0
:10075C00D7E60120704700BF001002400000424263
:10076C000F4B5B6803F00C02082A01D00D48704750
:10077C00C3F383420C49885C13F4803F0BD0084BC5
:10078C005B68C3F34043094AD35C064A02FB00F0A2
:10079C00B0FBF3F07047064B03FB00F0704700BF53
:1007AC000010024000127A00B8170008B4170008B5
:1007BC0000093D00002800F09E8070B50D460446EF
:1007CC004E4B1B6803F007038B420AD24B4A13684B
:1007DC0023F007030B431360136803F007038B42EA
:1007EC0048D1236813F0020F17D013F0040F04D074
:1007FC00434A536843F4E0635360236813F0080FD3
:10080C0004D03F4A536843F4605353603C4A5368E6
:10081C0023F0F003A1680B435360236813F0010F1E
:10082C0030D06368012B20D0022B25D0344A1268BB
:10083C0012F0020F1ED032494A6822F00302134311
:10084C004B60FFF77BFD06462D4B5B6803F00C03FA
:10085C006268B3EB820F15D0FFF770FD801B41F27D
:10086C0088339842F0D9032005E0254A126812F427
:10087C00003FE0D1012070BD214A126812F0007FC8
:10088C00D9D1F7E71D4B1B6803F00703AB420AD91C
:10089C001A4A136823F007032B431360136803F001
:1008AC000703AB42E6D1236813F0040F06D0144AB9
:1008BC00536823F4E063E1680B435360236813F03F
:1008CC00080F07D00E4A536823F46053216943EA9A
:1008DC00C1035360FFF744FF094B5B68C3F3031379
:1008EC00084AD35CD840084B1860084B1868FFF7CF
:1008FC00E3FC0020BFE70120704700BF002002404E
:10090C0000100240C8170008080000200400002056
:10091C00002807DB090100F1604000F5614080F818
:10092C000013704700F00F000901014B1954704778
:10093C0014ED00E000B500F00700A0F1030CBCF1D1
:10094C00040F07D8C0F1070E0430062806D84FF064
:10095C00000C03E04FF0040E4FF0000C4FF0FF338F
:10096C0003FA0EF021EA000101FA0CF103FA0CF380
:10097C0022EA030241EA020000BD0000074AD368E4
:10098C0023F4E0631B041B0C000200F4E06003433F
:10099C0043F0BF6343F40033D360704700ED00E0D5
:1009AC0010B50446054BD868C0F30220FFF7C2FF10
:1009BC0001462046FFF7ACFF10BD00BF00ED00E084
:1009CC000138B0F1807F0BD24FF0E0235861054A1B
:1009DC00F02182F823100020986107221A617047D9
:1009EC000120704700ED00E07047000008B5094891
:1009FC0000F022FC00F0ECF9074800F01DFC00F0C0
:100A0C00FBF8064800F018FC00F0A6F9044800F0CA
:100A1C0013FC08BD04150008281500085015000823
:100A2C007415000810B5124800F006FC01E000F047
:100A3C00CFFC00F0A9F904460028F8D0417A0068F0
:100A4C0000F012FC204600F099F9204600F04CF81A
:100A5C00204600F0D3F900F075F9A042E9D0204609
:100A6C0000F0FCF800F068F900F088F9E1E700BF4D
:100A7C0098150008014BFF221A7070472C000020BB
:100A8C00054B93F90030042B05DC01335BB2024AB1
:100A9C0013701A44507070472C000020044B93F9CB
:100AAC000030B3F1FF3F01D00020704701207047A8
:100ABC002C000020054B93F90020002A03DB134483
:100ACC0093F9010070474FF0FF3070472C00002065
:100ADC00044B93F90030002B02DB013B014A1370ED
:100AEC00704700BF2C000020014B1860704700BFFE
:100AFC00400000202DE9F04383B00446804689462F
:100B0C00FFF7CCFF0346002856D1354A1278002A4D
:100B1C0052D0002C50D0334A136801331360FFF7C6
:100B2C00C9FF8DF8070045012F4E06EB40140DF15F
:100B3C00070000F04FF9074600F05CF907EB800363
:100B4C004FF0807243F8042C43F8088C274A43F882
:100B5C000C2C002243F8102C43F8142C43F8182CBE
:100B6C0043F81C2C43F8202C43F8242C43F8282C55
:100B7C0043F82C2C43F8302C43F8342C43F8382C05
:100B8C0043F83C2CA3F1400143F8402C84F8099025
:100B9C00C4F818809DF907307351E160012323726A
:100BAC00134B1A68D461E6611C60FFF791FF617A00
:100BBC00705900F049FB05E03BB9094B1B783BB180
:100BCC0043464BB103B0BDE8F08300F0F7FBF4E70C
:100BDC00084800F0C7FBF3E7064800F097FBF1E785
:100BEC00330000200401002044000020350D0008D3
:100BFC0034000020B815000810B501210F4B1970F6
:100C0C0000220F4B1A600F4BDB610F4803600F483B
:100C1C0003600F4803600F4803605A720E489861D6
:100C2C001A601972FFF726FF052404E02046FFF72F
:100C3C0027FF013C64B2002CF8DC10BD330000200F
:100C4C0004010020440000203C0000204000002053
:100C5C003800002034000020070E000838B5054687
:100C6C0070B1294B98420ED0284B1B785BB1284BA6
:100C7C001B68002B43DD274B19680C46002314E03E
:100C8C00254800F043FB204B9D4203D01F4B1B78A3
:100C9C0023B138BD204800F04FFBF7E71E4800F0A9
:100CAC0061FBF6E701335BB21446E269AA4204D059
:100CBC008C42F7D1002BECD1F4E795F90000FFF74B
:100CCC00DFFE164B1C60EB69154A1360154A12685F
:100CDC00AA420ED0E3610F4A1268AA420CD0042338
:100CEC002B72286800F0FCFA094A1368013B136068
:100CFC00CFE70C4A1460EDE7064A1360EFE70648AD
:100D0C0000F046FBC5E700BF440000203300002084
:100D1C000401002040000020C41500083C00002005
:100D2C00380000203400002008B5024B1868FFF78B
:100D3C0095FF08BD40000020014B1868704700BFAC
:100D4C00400000200048704744000020014B1878F8
:100D5C00704700BF3300002008B5FFF7F7FF00B95C
:100D6C0008BDFFF7E9FF034B1860FFF7EBFF024BE1
:100D7C001860F5E71001002008010020014B1860F5
:100D8C00704700BF100100200E4B00221A600E4B62
:100D9C00D3F800C0BCF1000F12D00C4B186880B116
:100DAC00DCF81C30604602E0DB699C4505D0597AC2
:100DBC00427A9142F8D91846F6E7024B1860704710
:100DCC00604670470C010020100100200801002033
:100DDC000020704740B190F90030DAB2052A04D8EF
:100DEC00034800EB8320704770470020704700BF1A
:100DFC00140100204FF480707047FEE760B110B50D
:100E0C00044683693BB1006800F03EFAA369984739
:100E1C00206800F04FFA10BD70470000012909D07E
:100E2C001B4B984221D01B4B984224D01A4B984212
:100E3C0027D07047164B98420BD0164B98420ED0C9
:100E4C00154B9842F5D1154A936943F01003936101
:100E5C007047124A936943F00403936170470F4A39
:100E6C00936943F00803936170470C4A936923F02C
:100E7C00040393617047094A936923F00803936153
:100E8C007047064A936923F010039361D1E700BFC2
:100E9C0000080140000C014000100140001002400D
:100EAC00F8B5054604794679877901210068FFF782
:100EBC00B5FF072C09D82B68A400E4B25EB9012F4A
:100ECC0018D0022F22D1082615E02B680433083CD9
:100EDC00A400E4B2F2E7032F1AD8DFE807F00C0203
:100EEC00050846F0040606E046F0080603E046F066
:100EFC000C0600E004261A680F21A14022EA010228
:100F0C001A601A68A64032431A60F8BD0026F2E750
:100F1C000026F0E710B582B0094C00940D238DF833
:100F2C00043002238DF8053000238DF80630684616
:100F3C00FFF7B6FF4FF40053236102B010BD00BFA2
:100F4C00001001400B4A936943F0040393610A4B70
:100F5C005A6822F0F0025A605A6842F0B0025A60A5
:100F6C005A6822F470625A605A6842F480625A607D
:100F7C00704700BF0010024000080140012909D051
:100F8C001B4B984221D01B4B984224D01A4B9842B1
:100F9C0027D07047164B98420BD0164B98420ED068
:100FAC00154B9842F5D1154AD36943F48023D3618C
:100FBC007047124A936943F48043936170470F4A18
:100FCC00D36943F40033D36170470C4A936923F41B
:100FDC00804393617047094AD36923F40033D3618A
:100FEC007047064AD36923F48023D361D1E700BF4D
:100FFC00003801400044004000480040001002400E
:10100C0000B5104B98421BD00F4B4FF0640C0CFBEF
:10101C0003F30901B3FBF1F30C4AA2FB03E1490909
:10102C000CFB11331B013233A2FB03C25209B3F583
:10103C00C86F01D30131002242EA0112826000BD67
:10104C00034BE2E700380140005125021F85EB51AC
:10105C0000A24A0410B5044601210068FFF78EFF78
:10106C002268214B9A421FD0627B1203A37B012B77
:10107C001DD0022B1ED023790BB1022B01D142F0D3
:10108C000802013BDBB2012B17D92368DA60237B02
:10109C001B0322681361E37B012B11D0022B1DD0A3
:1010AC00032B1ED000220DE0FFF74CFFDCE742F4CF
:1010BC008062E0E742F4C062DDE742F00402E4E75C
:1010CC004FF4007223685A61A1682068FFF798FFFB
:1010DC002268D36843F40053D36010BD4FF4807280
:1010EC00F0E74FF44072EDE700380140036813F06D
:1010FC00800FFBD04160036813F0400FFBD07047AA
:10110C0038B505460C4603E02846FFF7EFFF0134DF
:10111C0021780029F8D138BD08B502490248FFF7FB
:10112C00EFFF08BDD41500080038014008B502498E
:10113C000248FFF7E5FF08BDE8150008003801403C
:10114C0008B502490248FFF7DBFF08BDFC15000893
:10115C000038014008B502490248FFF7D1FF08BD2D
:10116C00101600080038014008B502490248FFF784
:10117C00C7FF08BD241600080038014000B587B031
:10118C0018BB30238DF80C30012318336B4400222C
:10119C0003F80C2C03A91648FFF7B2FF07B000BDEB
:1011AC00144BA3FB0103DB08184603EB8303A1EBF1
:1011BC004303303302F11801694401F8183C01462D
:1011CC0001320029ECD10B460EE001460022F8E773
:1011DC00013A02F11801694411F8180C03F11801D5
:1011EC00694401F80C0C0133002AF1DCCDE700BF97
:1011FC0000380140CDCCCCCC70B506460D460A4C1F
:10120C000A492046FFF77CFF3046FFF7B7FF084935
:10121C002046FFF775FF2846FFF7B0FF054920462B
:10122C00FFF76EFF70BD00BF003801403816000894
:10123C00401600085016000808B501460148FFF793
:10124C005FFF08BD0038014038B505460C4604491F
:10125C000448FFF755FF21462846FFF7CDFF38BD60
:10126C00541600080038014038B505460C460449B0
:10127C000448FFF745FF21462846FFF7BDFF38BD60
:10128C00641600080038014038B50546064C07497D
:10129C002046FFF735FF2846FFF770FF044920462C
:1012AC00FFF72EFF38BD00BF003801407C16000848
:1012BC008816000838B50546064C07492046FFF746
:1012CC001FFF2846FFF75AFF04492046FFF718FF77
:1012DC0038BD00BF003801407C1600089416000889
:1012EC0038B50546064C07492046FFF709FF284646
:1012FC00FFF744FF04492046FFF702FF38BD00BF4B
:10130C00003801407C160008A016000838B50546C8
:10131C00064C07492046FFF7F3FE29462046FFF707
:10132C00EFFE04492046FFF7EBFE38BD00380140C4
:10133C00B4160008C416000838B50546064C074913
:10134C002046FFF7DDFE29462046FFF7D9FE04496B
:10135C002046FFF7D5FE38BD00380140B416000812
:10136C00DC16000838B50546064C07492046FFF741
:10137C00C7FE29462046FFF7C3FE04492046FFF767
:10138C00BFFE38BD00380140B4160008081700082D
:10139C0038B50546064C07492046FFF7B1FE2946ED
:1013AC002046FFF7ADFE04492046FFF7A9FE38BDE5
:1013BC0000380140B41600083417000808B502497B
:1013CC000248FFF79DFE08BD5C170008003801407D
:1013DC0008B502490248FFF793FE08BD94170008B0
:1013EC0000380140FFF700FB0B480C490C4A002366
:1013FC0002E0D458C4500433C4188C42F9D3094ABF
:10140C00094C002301E013600432A242FBD300F02C
:10141C0017F8FEF7C9FE7047000000200C000020F2
:10142C00E01700080C00002014190020FEE703460A
:10143C000244934200D1704703F8011BF9E7000006
:10144C0070B500260C4C0D4B1D1BB6EBA50F09D12E
:10145C00002600F019F80A4C0A4B1D1BB6EBA50F21
:10146C0005D170BD54F8043B98470136EDE754F8AC
:10147C00043B98470136F1E7D8170008D817000845
:10148C00D8170008DC170008F8B500BFF8BC08BC7A
:10149C009E467047F8B500BFF8BC08BC9E46704726
:1014AC004368726F6E6F7352544F5320626F6F7438
:1014BC0065640D0A000000004B65726E656C206956
:1014CC006E697469616C697A65640D0A00000000CC
:1014DC0035207461736B7320637265617465640D80
:1014EC000A0000004B65726E656C20737461727437
:1014FC0065640D0A000000005B4B65726E656C5DE7
:10150C0020496E697469616C697A696E67206D65D2
:10151C006D6F72792E2E2E0A000000005B4B6572E7
:10152C006E656C5D20496E697469616C697A696E6F
:10153C0067207461736B206D616E616765722E2E0E
:10154C002E0A00005B4B65726E656C5D20496E69FE
:10155C007469616C697A696E672073636865647518
:10156C006C65722E2E2E0A005B4B65726E656C5D7F
:10157C0020496E697469616C697A6174696F6E2057
:10158C00636F6D706C6574652E0A00005B4B657241
:10159C006E656C5D205374617274696E6720736341
:1015AC00686564756C65722E2E2E0A005461736B1F
:1015BC005F437265617465005461736B5F5465724F
:1015CC006D696E61746500005461736B20413A2043
:1015DC0052554E4E494E470D0A0000005461736B34
:1015EC0020423A2052554E4E494E470D0A000000FB
:1015FC005461736B20433A2052554E4E494E470D61
:10160C000A0000005461736B20443A2052554E4E30
:10161C00494E470D0A0000005461736B20453A2077
:10162C0052554E4E494E470D0A0000005449443D58
:10163C0000000000207C205072696F726974793D43
:10164C00000000000D0A00005B5461736B5D2043C9
:10165C0072656174656420005B5363686564756CC6
:10166C0065725D205363686564756C656420000069
:10167C005B5461736B5D205449443D002052554EC0
:10168C004E494E470D0A00002046494E49534845E5
:10169C00440D0A00202D3E205445524D494E4154D4
:1016AC0045440D0A000000005B45646765204361FA
:1016BC0073655D20000000002072656A65637465C7
:1016CC00643A204E554C4C207461736B0D0A00002B
:1016DC002072656A65637465643A20544342302F06
:1016EC0049646C65207461736B2063616E6E6F74FA
:1016FC0020626520757365640D0A00002072656AAE
:10170C0065637465643A207461736B2073797374C8
:10171C00656D206E6F7420696E697469616C697A8D
:10172C0065640D0A000000002072656A65637465CB
:10173C00643A206E6F2075736572207461736B73DD
:10174C0020617661696C61626C650D0A00000000B5
:10175C005B4564676520436173655D205461736B01
:10176C00206372656174696F6E2072656A6563745B
:10177C0065643A206E6F2066726565207461736BC8
:10178C0020736C6F740D0A005B5363686564756C31
:10179C0065725D204E6F207461736B2073656C6590
:1017AC00637465640D0A0000010200000203040565
:1017BC00060708090A0B0C0D0E0F10100000000094
:0C17CC00000000000102030406070809E9
:0417D80031010008D3
:0417DC000D010008F3
:0C17E000010000001000000000127A0060
:04000005080013F1EB
:00000001FF
