:020000040800F2
:100000000050002049150008690200086B02000832
:100010006D0200086F020008710200080000000075
:100020000000000000000000000000007302000853
:10003000750200080000000077020008790200083D
:1000400091150008911500089115000891150008F8
:1000500091150008911500089115000891150008E8
:1000600091150008911500089115000891150008D8
:1000700091150008911500089115000891150008C8
:1000800091150008911500089115000891150008B8
:1000900091150008911500089115000891150008A8
:1000A0009115000891150008911500089115000898
:1000B0009115000891150008911500089115000888
:1000C0009115000891150008911500089115000878
:1000D0009115000891150008911500089115000868
:1000E0009115000891150008911500080000000006
:1000F0000000000000000000000000000000000000
:0C01000000000000000000005FF808F1A3
:10010C0010B5054C237833B9044B13B10448AFF345
:10011C0000800123237010BD0C00002000000000A3
:10012C00EC15000808B5034B1BB103490348AFF3AA
:10013C00008008BD0000000010000020EC15000835
:10014C0072B6FEE710B590B006AC2822002120460E
:10015C0001F019FA0023019302930393049305937E
:10016C00012206924FF4803307930A9202220D92D9
:10017C000E934FF4E0130F93204600F00FF970B973
:10018C000F2301930221029103904FF48062049299
:10019C00059001A800F022FB18B910B010BDFFF7B4
:1001AC00CFFFFFF7CDFF000000B585B000F0A8F839
:1001BC00FFF7C8FF00F0C2FE1E4C009402258DF81C
:1001CC0004504FF4E133029300238DF80C308DF87A
:1001DC000D308DF80E308DF80F30684600F05EFF54
:1001EC001549204600F0B0FF00F014FC13492046DE
:1001FC0000F0AAFF0121124800F090FC05211148E3
:10020C0000F08CFC0321104800F088FC29460F48B4
:10021C0000F084FC04210E4800F080FC0D492046BF
:10022C0000F092FF00F012FC0B49204600F08CFF0E
:10023C00FEE700BF00380140041600081C16000839
:10024C006D110008A9110008FD11000849120008E1
:10025C00951200083416000848160008FEE7FEE761
:10026C00FEE7FEE7FEE770477047704708B500F001
:10027C0059F808BD82B00E4B9A6942F001029A619E
:10028C009A6902F001020092009ADA6942F08052F7
:10029C00DA61DB6903F080530193019B054A5368D3
:1002AC0023F0E06343F08063536002B0704700BFFB
:1002BC00001002400000014010B504460D4B1868B8
:1002CC000D4B1A784FF47A73B3FBF2F3B0FBF3F0E7
:1002DC0000F08AFB08B90F2C01D9012010BD024691
:1002EC0021464FF0FF3000F06FFB044B1C600020E8
:1002FC00F4E700BF080000200000002004000020EC
:10030C0008B5074A136843F010031360032000F08C
:10031C0049FB0F20FFF7D0FFFFF7ACFF002008BD13
:10032C0000200240034A1168034B1B780B441360F6
:10033C00704700BF2800002000000020014B186807
:10034C00704700BF2800002038B50446FFF7F6FFC1
:10035C000546B4F1FF3F02D0044B1B781C44FFF759
:10036C00EDFF401BA042FAD338BD00BF00000020B7
:10037C0082B0084B1B68084AA2FB03235B0A00FBF4
:10038C0003F3019300BF019B5A1E0192002BF9D17C
:10039C0002B0704708000020D34D6210002800F016
:1003AC00EC8170B582B00446036813F0010F2DD0B8
:1003BC00984B5B6803F00C03042B1FD0954B5B68C8
:1003CC0003F00C03082B14D06368B3F5803F41D0C5
:1003DC00002B54D103F1804303F504331A6822F443
:1003EC0080321A601A6822F480221A6037E00120E9
:1003FC009BE0884B5B6813F4803FE5D0854B1B6812
:10040C0013F4003F02D06368002BF0D0236813F084
:10041C00020F71D07F4B5B6813F00C0F5CD07D4BDF
:10042C005B6803F00C03082B51D02369002B00F000
:10043C008780794B01221A60FFF780FF0546754BC8
:10044C001B6813F0020F72D1FFF778FF401B0228D4
:10045C00F5D969E06F4A136843F48033136063681D
:10046C003BB3FFF76BFF05466A4B1B6813F4003F69
:10047C00CCD1FFF763FF401B6428F5D954E0B3F5EA
:10048C00A02F09D0634B1A6822F480321A601A68C4
:10049C0022F480221A60E2E703F18043A3F53C3397
:1004AC001A6842F480221A601A6842F480321A6088
:1004BC00D5E7FFF743FF0546564B1B6813F4003F87
:1004CC00A4D0FFF73BFF401B6428F5D92CE0514B1F
:1004DC005B6813F4803FA8D14E4B1B6813F0020FDE
:1004EC0002D02369012B82D14A4A136823F0F80306
:1004FC00616943EAC1031360236813F0080F33D01A
:10050C00A369002B5DD0444B0122C3F88024FFF774
:10051C0015FF05463F4B5B6A13F0020F21D1FFF725
:10052C000DFF401B0228F5D9032002B070BD394ADB
:10053C00136823F0F803616943EAC1031360DBE736
:10054C00354B00221A60FFF7F9FE0546314B1B684C
:10055C0013F0020FD0D0FFF7F1FE401B0228F5D9A3
:10056C00E2E70120FFF704FF236813F0040F00F00B
:10057C009580284BDB6913F0805F34D1254BDA6909
:10058C0042F08052DA61DB6903F080530193019BE6
:10059C0001231E46214B1B6813F4807F26D0E36891
:1005AC00012B3DD0002B52D103F1804303F50433D2
:1005BC001A6A22F001021A621A6A22F004021A6202
:1005CC0033E0154B0022C3F88024FFF7B7FE054635
:1005DC00104B5B6A13F0020FC6D0FFF7AFFE401B47
:1005EC000228F5D9A0E700231E46D3E70B4A13686F
:1005FC0043F480731360FFF7A1FE0546074B1B689D
:10060C0013F4807FCBD1FFF799FE401B6428F5D9FA
:10061C008AE700BF00100240000042420070004018
:10062C00574A136A43F001031362E3682BB3FFF7D5
:10063C0085FE0546524B1B6A13F0020F2DD1FFF7B6
:10064C007DFE401B41F288339842F3D96CE7052BB1
:10065C0009D04B4B1A6A22F001021A621A6A22F074
:10066C0004021A62E1E7464B1A6A42F004021A626B
:10067C001A6A42F001021A62D7E7FFF75FFE0546DD
:10068C003F4B1B6A13F0020F07D0FFF757FE401BBE
:10069C0041F288339842F3D946E7DEB9E369002B7F
:1006AC0055D0374A526802F00C02082A51D0022B5E
:1006BC0016D0344B00221A66FFF740FE0446304B2E
:1006CC001B6813F0007F42D0FFF738FE001B022896
:1006DC00F5D929E72A4AD36923F08053D361DDE7A2
:1006EC00284B00221A66FFF729FE0546244B1B688F
:1006FC0013F0007F05D0FFF721FE401B0228F5D92F
:10070C0012E7236AB3F5803F19D01D494B6823F4D7
:10071C007413226A606A024313434B60194B012223
:10072C001A66FFF70BFE0446154B1B6813F0007F8F
:10073C000DD1FFF703FE001B0228F5D9F4E6104A91
:10074C00536823F40033A1680B435360DDE70020AA
:10075C00EBE6012B3FF44BAE094B5B6803F48031A5
:10076C00226A91427FF443AE03F47013626A93429F
:10077C0001D10020D9E60120D7E60120704700BF47
:10078C0000100240000042420F4B5B6803F00C0269
:10079C00082A01D00D487047C3F383420C49885C8A
:1007AC0013F4803F0BD0084B5B68C3F34043094AFA
:1007BC00D35C064A02FB00F0B0FBF3F07047064B2B
:1007CC0003FB00F0704700BF0010024000127A00DB
:1007DC00741900087019000800093D00002800F089
:1007EC009E8070B50D4604464E4B1B6803F0070304
:1007FC008B420AD24B4A136823F007030B43136056
:10080C00136803F007038B4248D1236813F0020FDF
:10081C0017D013F0040F04D0434A536843F4E06339
:10082C005360236813F0080F04D03F4A536843F415
:10083C00605353603C4A536823F0F003A1680B43A8
:10084C005360236813F0010F30D06368012B20D064
:10085C00022B25D0344A126812F0020F1ED03249F6
:10086C004A6822F0030213434B60FFF767FD06460C
:10087C002D4B5B6803F00C036268B3EB820F15D051
:10088C00FFF75CFD801B41F288339842F0D90320BE
:10089C0005E0254A126812F4003FE0D1012070BD3A
:1008AC00214A126812F0007FD9D1F7E71D4B1B6863
:1008BC0003F00703AB420AD91A4A136823F0070363
:1008CC002B431360136803F00703AB42E6D1236894
:1008DC0013F0040F06D0144A536823F4E063E16864
:1008EC000B435360236813F0080F07D00E4A53686C
:1008FC0023F46053216943EAC1035360FFF744FFBB
:10090C00094B5B68C3F30313084AD35CD840084B0C
:10091C001860084B1868FFF7CFFC0020BFE70120D8
:10092C00704700BF002002400010024084190008EC
:10093C000800002004000020002807DB090100F15A
:10094C00604000F5614080F80013704700F00F0024
:10095C000901014B1954704714ED00E000B500F08B
:10096C000700A0F1030CBCF1040F07D8C0F1070E6F
:10097C000430062806D84FF0000C03E04FF0040EAC
:10098C004FF0000C4FF0FF3303FA0EF021EA000198
:10099C0001FA0CF103FA0CF322EA030241EA020019
:1009AC0000BD0000074AD36823F4E0631B041B0C52
:1009BC00000200F4E060034343F0BF6343F40033F0
:1009CC00D360704700ED00E010B50446054BD868C5
:1009DC00C0F30220FFF7C2FF01462046FFF7ACFF31
:1009EC0010BD00BF00ED00E00138B0F1807F0BD2EC
:1009FC004FF0E0235861054AF02182F823100020C3
:100A0C00986107221A6170470120704700ED00E0E1
:100A1C007047000008B5094800F0BAFC00F0ECF98A
:100A2C00074800F0B5FC00F0FBF8064800F0B0FCFD
:100A3C0000F0A6F9044800F0ABFC08BD5C160008F9
:100A4C0080160008A8160008CC16000810B512482D
:100A5C0000F09EFC01E000F067FD00F0A9F90446EF
:100A6C000028F8D0417A006800F0AAFC204600F07B
:100A7C0099F9204600F04CF8204600F0D3F900F02C
:100A8C0075F9A042E9D0204600F0FCF800F068F9B6
:100A9C0000F088F9E1E700BFF0160008014BFF22D7
:100AAC001A7070472C000020054B93F90030042B72
:100ABC0005DC01335BB2024A13701A445070704764
:100ACC002C000020044B93F90030B3F1FF3F01D010
:100ADC0000207047012070472C000020054B93F933
:100AEC000020002A03DB134493F9010070474FF0F8
:100AFC00FF3070472C000020044B93F90030002B82
:100B0C0002DB013B014A1370704700BF2C00002030
:100B1C00014B1860704700BF400000202DE9F043E6
:100B2C0083B0044680468946FFF7CCFF0346002875
:100B3C0056D1354A1278002A52D0002C50D0334A64
:100B4C00136801331360FFF7C9FF8DF807004501E7
:100B5C002F4E06EB40140DF1070000F04FF907463D
:100B6C0000F05CF907EB80034FF0807243F8042C23
:100B7C0043F8088C274A43F80C2C002243F8102C1D
:100B8C0043F8142C43F8182C43F81C2C43F8202C55
:100B9C0043F8242C43F8282C43F82C2C43F8302C05
:100BAC0043F8342C43F8382C43F83C2CA3F1400187
:100BBC0043F8402C84F80990C4F818809DF907304C
:100BCC007351E16001232372134B1A68D461E661FF
:100BDC001C60FFF791FF617A705900F0E1FB05E0B2
:100BEC003BB9094B1B783BB143464BB103B0BDE855
:100BFC00F08300F08FFCF4E7084800F05FFCF3E7AB
:100C0C00064800F02FFCF1E733000020040100201F
:100C1C00440000205D0D000834000020101700086F
:100C2C0010B501210F4B197000220F4B1A600F4B9E
:100C3C00DB610F4803600F4803600F4803600F48E7
:100C4C0003605A720E4898611A601972FFF726FFFA
:100C5C00052404E02046FFF727FF013C64B2002C7A
:100C6C00F8DC10BD330000200401002044000020FB
:100C7C003C00002040000020380000203400002000
:100C8C002F0E000838B5054670B1294B98420ED08E
:100C9C00284B1B785BB1284B1B68002B43DD274B83
:100CAC0019680C46002314E0254800F0DBFB204BB0
:100CBC009D4203D01F4B1B7823B138BD204800F058
:100CCC00E7FBF7E71E4800F0F9FBF6E701335BB2F0
:100CDC001446E269AA4204D08C42F7D1002BECD125
:100CEC00F4E795F90000FFF7DFFE164B1C60EB698B
:100CFC00154A1360154A1268AA420ED0E3610F4AD6
:100D0C001268AA420CD004232B72286800F094FBC2
:100D1C00094A1368013B1360CFE70C4A1460EDE7F6
:100D2C00064A1360EFE7064800F0DEFBC5E700BF9C
:100D3C00440000203300002004010020400000206B
:100D4C001C1700083C000020380000203400002054
:100D5C0008B5024B1868FFF795FF08BD400000204E
:100D6C00014B1868704700BF4000002000487047D6
:100D7C0044000020014B1878704700BF330000205E
:100D8C0008B5FFF7F7FF00B908BDFFF7E9FF034B04
:100D9C001860FFF7EBFF024B1860F5E7100100201D
:100DAC0008010020014B1860704700BF10010020A3
:100DBC000E4B00221A600E4BD3F800C0BCF1000F92
:100DCC0012D00C4B186880B1DCF81C30604602E085
:100DDC00DB699C4505D0597A427A9142F8D918467C
:100DEC00F6E7024B18607047604670470C01002014
:100DFC0010010020080100200020704740B190F93C
:100E0C000030DAB2052A04D8034800EB832070477F
:100E1C0070470020704700BF140100204FF4807011
:100E2C007047FEE760B110B5044683693BB10068BA
:100E3C0000F0D6FAA3699847206800F0E7FA10BDD5
:100E4C0070470000012909D01B4B984221D01B4B45
:100E5C00984224D01A4B984227D07047164B984290
:100E6C000BD0164B98420ED0154B9842F5D1154A23
:100E7C00936943F0100393617047124A936943F0EE
:100E8C000403936170470F4A936943F0080393611D
:100E9C0070470C4A936923F0040393617047094A25
:100EAC00936923F0080393617047064A936923F012
:100EBC0010039361D1E700BF00080140000C014012
:100ECC000010014000100240F8B50546047946793F
:100EDC00877901210068FFF7B5FF072C09D82B682B
:100EEC00A400E4B25EB9012F18D0022F22D108263B
:100EFC0015E02B680433083CA400E4B2F2E7032F9E
:100F0C001AD8DFE807F00C02050846F0040606E0E4
:100F1C0046F0080603E046F00C0600E004261A68CA
:100F2C000F21A14022EA01021A601A68A64032433E
:100F3C001A60F8BD0026F2E70026F0E710B582B083
:100F4C00094C00940D238DF8043002238DF80530E4
:100F5C0000238DF806306846FFF7B6FF4FF40053B8
:100F6C00236102B010BD00BF00100140024B4FF4D2
:100F7C0000525A61704700BF00100140024B4FF401
:100F8C0000521A61704700BF001001400B4A936970
:100F9C0043F0040393610A4B5A6822F0F0025A6042
:100FAC005A6842F0B0025A605A6822F470625A6071
:100FBC005A6842F480625A60704700BF00100240C9
:100FCC0000080140012909D01B4B984221D01B4B32
:100FDC00984224D01A4B984227D07047164B98420F
:100FEC000BD0164B98420ED0154B9842F5D1154AA2
:100FFC00D36943F48023D3617047124A936943F455
:10100C008043936170470F4AD36943F40033D36133
:10101C0070470C4A936923F4804393617047094AE3
:10102C00D36923F40033D3617047064AD36923F4A0
:10103C008023D361D1E700BF003801400044004059
:10104C00004800400010024000B5104B98421BD0E5
:10105C000F4B4FF0640C0CFB03F30901B3FBF1F3E2
:10106C000C4AA2FB03E149090CFB11331B0132337F
:10107C00A2FB03C25209B3F5C86F01D301310022A0
:10108C0042EA0112826000BD034BE2E700380140E6
:10109C00005125021F85EB5100A24A0410B50446ED
:1010AC0001210068FFF78EFF2268214B9A421FD066
:1010BC00627B1203A37B012B1DD0022B1ED0237944
:1010CC000BB1022B01D142F00802013BDBB2012B28
:1010DC0017D92368DA60237B1B0322681361E37B37
:1010EC00012B11D0022B1DD0032B1ED000220DE0A2
:1010FC00FFF74CFFDCE742F48062E0E742F4C062A9
:10110C00DDE742F00402E4E74FF4007223685A6111
:10111C00A1682068FFF798FF2268D36843F4005356
:10112C00D36010BD4FF48072F0E74FF44072EDE7DE
:10113C0000380140036813F0800FFBD04160036856
:10114C0013F0400FFBD0704738B505460C4603E052
:10115C002846FFF7EFFF013421780029F8D138BD7C
:10116C0010B50B4C0B492046FFF7EEFFFFF7FEFEC8
:10117C004FF4FA70FFF7E8F8FFF700FF41F2883000
:10118C00FFF7E2F804492046FFF7DEFF10BD00BF71
:10119C00003801402C1700084017000810B5114CFE
:1011AC0011492046FFF7D0FFFFF7E0FE4FF4FA702D
:1011BC00FFF7CAF8FFF7E2FE4FF4FA70FFF7C4F836
:1011CC00FFF7D4FE4FF4FA70FFF7BEF8FFF7D6FE28
:1011DC0041F28830FFF7B8F804492046FFF7B4FF16
:1011EC0010BD00BF003801405417000868170008F4
:1011FC0010B50F490F48FFF7A7FF00240CE0FFF7CD
:10120C00B5FE4FF4FA70FFF79FF8FFF7B7FE4FF4F7
:10121C00FA70FFF799F80134022CF0DD41F28830B6
:10122C00FFF792F804490348FFF78EFF10BD00BF8B
:10123C007C170008003801409017000810B50F49C2
:10124C000F48FFF781FF00240CE0FFF78FFE4FF4EF
:10125C00FA70FFF779F8FFF791FE4FF4FA70FFF789
:10126C0073F80134032CF0DD41F28830FFF76CF891
:10127C0004490348FFF768FF10BD00BFA41700081E
:10128C0000380140B817000810B50F490F48FFF798
:10129C005BFF00240CE0FFF769FE4FF4FA70FFF7D8
:1012AC0053F8FFF76BFE4FF4FA70FFF74DF801346B
:1012BC00042CF0DD41F28830FFF746F8044903486E
:1012CC00FFF742FF10BD00BFCC17000800380140EB
:1012DC00E017000800B587B018BB30238DF80C3030
:1012EC00012318336B44002203F80C2C03A9164875
:1012FC00FFF72AFF07B000BD144BA3FB0103DB086B
:10130C00184603EB8303A1EB4303303302F11801BE
:10131C00694401F8183C014601320029ECD10B4616
:10132C000EE001460022F8E7013A02F11801694487
:10133C0011F8180C03F11801694401F80C0C013375
:10134C00002AF1DCCDE700BF00380140CDCCCCCC7D
:10135C0070B506460D460A4C0A492046FFF7F4FEC6
:10136C003046FFF7B7FF08492046FFF7EDFE284649
:10137C00FFF7B0FF05492046FFF7E6FE70BD00BF42
:10138C0000380140F4170008FC1700080C1800087E
:10139C0008B501460148FFF7D7FE08BD00380140EB
:1013AC0038B505460C4604490448FFF7CDFE2146E6
:1013BC002846FFF7CDFF38BD101800080038014053
:1013CC0038B505460C4604490448FFF7BDFE2146D6
:1013DC002846FFF7BDFF38BD201800080038014033
:1013EC0038B50546064C07492046FFF7ADFE2846A2
:1013FC00FFF770FF04492046FFF7A6FE38BD00BF7B
:10140C0000380140381800084418000838B5054663
:10141C00064C07492046FFF797FE2846FFF75AFF70
:10142C0004492046FFF790FE38BD00BF003801404C
:10143C00381800085018000838B50546064C0749FE
:10144C002046FFF781FE2846FFF744FF044920465B
:10145C00FFF77AFE38BD00BF00380140381800088D
:10146C005C18000838B50546064C07492046FFF7BE
:10147C006BFE29462046FFF767FE04492046FFF71E
:10148C0063FE38BD00380140701800088018000851
:10149C0038B50546064C07492046FFF755FE294648
:1014AC002046FFF751FE04492046FFF74DFE38BD9C
:1014BC0000380140701800089818000838B5054627
:1014CC00064C07492046FFF73FFE29462046FFF70A
:1014DC003BFE04492046FFF737FE38BD003801407B
:1014EC0070180008C418000838B50546064C0749A2
:1014FC002046FFF729FE29462046FFF725FE044922
:10150C002046FFF721FE38BD003801407018000856
:10151C00F018000808B502490248FFF715FE08BD8F
:10152C00181900080038014008B502490248FFF7B5
:10153C000BFE08BD5019000800380140FFF768FA8F
:10154C000B480C490C4A002302E0D458C450043315
:10155C00C4188C42F9D3094A094C002301E01360EA
:10156C000432A242FBD300F017F8FEF71DFE7047C1
:10157C00000000200C0000209C1900080C0000202A
:10158C0014190020FEE703460244934200D1704731
:10159C0003F8011BF9E7000070B500260C4C0D4B4D
:1015AC001D1BB6EBA50F09D1002600F019F80A4C4B
:1015BC000A4B1D1BB6EBA50F05D170BD54F8043BAF
:1015CC0098470136EDE754F8043B98470136F1E7AC
:1015DC009419000894190008941900089819000827
:1015EC00F8B500BFF8BC08BC9E467047F8B500BF04
:0815FC00F8BC08BC9E467047D4
:101604004368726F6E6F7352544F5320626F6F74DE
:1016140065640D0A000000004B65726E656C2069FC
:101624006E697469616C697A65640D0A0000000072
:1016340035207461736B7320637265617465640D26
:101644000A0000004B65726E656C207374617274DD
:1016540065640D0A000000005B4B65726E656C5D8D
:1016640020496E697469616C697A696E67206D6579
:101674006D6F72792E2E2E0A000000005B4B65728E
:101684006E656C5D20496E697469616C697A696E16
:1016940067207461736B206D616E616765722E2EB5
:1016A4002E0A00005B4B65726E656C5D20496E69A5
:1016B4007469616C697A696E6720736368656475BF
:1016C4006C65722E2E2E0A005B4B65726E656C5D26
:1016D40020496E697469616C697A6174696F6E20FE
:1016E400636F6D706C6574652E0A00005B4B6572E8
:1016F4006E656C5D205374617274696E67207363E8
:10170400686564756C65722E2E2E0A005461736BC5
:101714005F437265617465005461736B5F546572F5
:101724006D696E61746500005461736B20413A20E9
:1017340052554E4E494E470D0A0000005461736BDA
:1017440020413A2046494E49534845440D0A000079
:101754005461736B20423A2052554E4E494E470D08
:101764000A0000005461736B20423A2046494E49F6
:10177400534845440D0A00005461736B20433A20DA
:1017840052554E4E494E470D0A0000005461736B8A
:1017940020433A2046494E49534845440D0A000027
:1017A4005461736B20443A2052554E4E494E470DB6
:1017B4000A0000005461736B20443A2046494E49A4
:1017C400534845440D0A00005461736B20453A2088
:1017D40052554E4E494E470D0A0000005461736B3A
:1017E40020453A2046494E49534845440D0A0000D5
:1017F4005449443D00000000207C205072696F72FF
:101804006974793D000000000D0A00005B546173A7
:101814006B5D204372656174656420005B5363688B
:101824006564756C65725D205363686564756C6589
:10183400642000005B5461736B5D205449443D0097
:101844002052554E4E494E470D0A00002046494E3F
:1018540049534845440D0A00202D3E205445524D1D
:10186400494E415445440D0A000000005B4564673D
:101874006520436173655D20000000002072656A85
:1018840065637465643A204E554C4C207461736BE7
:101894000D0A00002072656A65637465643A205419
:1018A4004342302F49646C65207461736B2063611B
:1018B4006E6E6F7420626520757365640D0A000096
:1018C4002072656A65637465643A207461736B2081
:1018D40073797374656D206E6F7420696E697469B1
:1018E400616C697A65640D0A000000002072656A03
:1018F40065637465643A206E6F2075736572207435
:1019040061736B7320617661696C61626C650D0A49
:10191400000000005B4564676520436173655D20DA
:101924005461736B206372656174696F6E207265B4
:101934006A65637465643A206E6F2066726565201B
:101944007461736B20736C6F740D0A005B5363686E
:101954006564756C65725D204E6F207461736B20D5
:1019640073656C65637465640D0A00000102000010
:1019740002030405060708090A0B0C0D0E0F1010CC
:10198400000000000000000001020304060708092B
:041994003101000815
:041998000D01000835
:0C199C00010000001000000000127A00A2
:040000050800154991
:00000001FF
