:020000040800F2
:1000000000500020650F0008590300085B0300083A
:100010005D0300085F0300086103000800000000A2
:100020000000000000000000000000006303000862
:10003000650300080000000067030008690300086A
:10004000AD0F0008AD0F0008AD0F0008AD0F0008A0
:10005000AD0F0008AD0F0008AD0F0008AD0F000890
:10006000AD0F0008AD0F0008AD0F0008AD0F000880
:10007000AD0F0008AD0F0008AD0F0008AD0F000870
:10008000AD0F0008AD0F0008AD0F0008AD0F000860
:10009000AD0F0008AD0F0008AD0F0008AD0F000850
:1000A000AD0F0008AD0F0008AD0F0008AD0F000840
:1000B000AD0F0008AD0F0008AD0F0008AD0F000830
:1000C000AD0F0008AD0F0008AD0F0008AD0F000820
:1000D000AD0F0008AD0F0008AD0F0008AD0F000810
:1000E000AD0F0008AD0F0008AD0F000800000000C4
:1000F0000000000000000000000000000000000000
:0C01000000000000000000005FF808F1A3
:10010C000348044B834202D0034B03B1184770479A
:10011C000C0000200C000020000000000548064BDD
:10012C001B1AD90F01EBA301491002D0034B03B1E9
:10013C00184770470C0000200C0000200000000045
:10014C0010B5064C237843B9FFF7DAFF044B13B113
:10015C000448AFF300800123237010BD0C00002075
:10016C0000000000B00F000808B5044B1BB1044997
:10017C000448AFF30080BDE80840CFE70000000062
:10018C0010000020B00F000870B50F4B0F4DAB42A4
:10019C00A3EB050607D00024B61055F8043B013438
:1001AC009847A642F9D800F0FDFE094D094B5E1B9D
:1001BC00AB424FEAA60606D0002455F8043B0134A6
:1001CC009847A642F9D870BD3010000830100008CE
:1001DC00301000083410000870B5860747D0541E44
:1001EC00002A3ED00346CAB201E0013C39D303F8E1
:1001FC00012B9D07F9D1032C2CD9CDB205EB05258C
:10020C000F2C1A4605EB054534D9A4F1100C2CF033
:10021C000F0603F1100EB6444FEA1C1CC2E9005540
:10022C00C2E9025510327245F8D10CF1010214F0FA
:10023C000C0F03EB021204F00F0C13D0ACF10403FF
:10024C0023F003030433134442F8045B9342FBD1C1
:10025C000CF003042CB1C9B21C4403F8011BA342DB
:10026C00FBD170BD64461346002CF4D1F9E703466C
:10027C001446C0E7A446E1E772B6FEE700B591B0BC
:10028C002822002106A8FFF7A7FF00230193029361
:10029C00039304930593012206924FF48033079342
:1002AC000A9202220D920E934FF4E0130F9306A8BC
:1002BC0000F0DAF880B90F23019302210291002398
:1002CC0003934FF480620492059301A800F0FEFAA8
:1002DC0020B911B05DF804FBFFF7CEFFFFF7CCFFA0
:1002EC0000B585B000F086F8FFF7C8FF00F030FDD0
:1002FC00124C009402238DF804304FF4E133029336
:10030C0000238DF80C308DF80D308DF80E308DF8F3
:10031C000F30684600F0BEFD0949204600F010FE83
:10032C0000F0F5FB0749204600F00AFE00F0F7FB51
:10033C000549204600F004FEFEE700BF00380140EE
:10034C00C80F0008E00F0008F80F0008FEE7FEE7F2
:10035C00FEE7FEE7FEE770477047704708B500F010
:10036C005BF808BD82B00E4B9A6942F001029A61AB
:10037C009A6902F001020092009ADA6942F0805206
:10038C00DA61DB6903F080530193019B054A5368E2
:10039C0023F0E06343F08063536002B0704700BF0A
:1003AC00001002400000014010B504460E4B1A78B4
:1003BC004FF47A73B3FBF2F30C4A1068B0FBF3F012
:1003CC0000F090FB68B90F2C01D901200AE0002243
:1003DC0021464FF0FF3000F075FB054B1C600020F0
:1003EC0000E0012010BD00BF00000020080000202C
:1003FC000400002008B5074A136843F0100313608B
:10040C00032000F04DFB0F20FFF7CEFFFFF7AAFFF4
:10041C00002008BD00200240034A1168034B1B78E2
:10042C000B441360704700BF280000200000002020
:10043C00014B1868704700BF2800002082B0084BA1
:10044C001B68084AA2FB03235B0A00FB03F301931E
:10045C0000BF019B5A1E0192002BF9D102B07047CC
:10046C0008000020D34D6210002800F0F18170B517
:10047C0082B00446036813F0010F2CD0994B5B68D3
:10048C0003F00C03042B1DD0964B5B6803F00C039C
:10049C00082B12D06368B3F5803F41D0002B55D1A7
:1004AC0003F1804303F504331A6822F480321A6096
:1004BC001A6822F480221A6037E08A4B5B6813F4C6
:1004CC00803FE7D0874B1B6813F4003F03D0636871
:1004DC00002B00F0BF81236813F0020F75D0814B05
:1004EC005B6813F00C0F5FD07E4B5B6803F00C0362
:1004FC00082B54D02369002B00F08A807A4B012200
:10050C001A60FFF795FF0546764B1B6813F0020F38
:10051C0075D1FFF78DFF401B0228F5D903209EE112
:10052C00704A136843F480331360636843B3FFF776
:10053C007FFF05466B4B1B6813F4003FCBD1FFF7D5
:10054C0077FF401B6428F5D9032088E1B3F5A02F71
:10055C0009D0644B1A6822F480321A601A6822F4AB
:10056C0080221A60E1E703F18043A3F53C331A685B
:10057C0042F480221A601A6842F480321A60D4E77E
:10058C00FFF756FF0546574B1B6813F4003FA2D0EC
:10059C00FFF74EFF401B6428F5D903205FE1514B58
:1005AC005B6813F4803FA5D14E4B1B6813F0020F10
:1005BC0003D02369012B40F04F814A4A136823F082
:1005CC00F803616943EAC1031360236813F0080F51
:1005DC0033D0A369002B5CD0434B0122C3F8802499
:1005EC00FFF726FF05463F4B5B6A13F0020F21D144
:1005FC00FFF71EFF401B0228F5D903202FE1394AD3
:10060C00136823F0F803616943EAC1031360DCE764
:10061C00354B00221A60FFF70BFF0546314B1B6868
:10062C0013F0020FD1D0FFF703FF401B0228F5D9BE
:10063C00032014E10120FFF701FF236813F0040FDE
:10064C0000F09680274BDB6913F0805F34D1254B8B
:10065C00DA6942F08052DA61DB6903F0805301936E
:10066C00019B0125214B1B6813F4807F26D0E36886
:10067C00012B3DD0002B53D103F1804303F5043300
:10068C001A6A22F001021A621A6A22F004021A6231
:10069C0033E0154B0022C3F88024FFF7C9FE054652
:1006AC00104B5B6A13F0020FC7D0FFF7C1FE401B63
:1006BC000228F5D90320D2E00025D3E70B4A1368B2
:1006CC0043F480731360FFF7B3FE0646074B1B68B9
:1006DC0013F4807FCBD1FFF7ABFE801B6428F5D9D8
:1006EC000320BCE0001002400000424200700040B9
:1006FC005F4A136A43F001031362E36833B3FFF7F5
:10070C0097FE06465A4B1B6A13F0020F2FD1FFF7C8
:10071C008FFE801B41F288339842F3D903209EE070
:10072C00052B09D0524B1A6A22F001021A621A6A7E
:10073C0022F004021A62E0E74D4B1A6A42F00402FE
:10074C001A621A6A42F001021A62D6E7FFF770FECB
:10075C000646474B1B6A13F0020F08D0FFF768FEE2
:10076C00801B41F288339842F3D9032077E0E5B936
:10077C00E369002B72D03E4A526802F00C02082A40
:10078C0056D0022B17D03B4B00221A66FFF750FEB7
:10079C000446374B1B6813F0007F47D0FFF748FE29
:1007AC00001B0228F5D9032059E0314AD36923F004
:1007BC008053D361DCE72F4B00221A66FFF738FE1B
:1007CC0005462B4B1B6813F0007F06D0FFF730FE5D
:1007DC00401B0228F5D9032041E0236AB3F5803F82
:1007EC001AD023494B6823F47413226A606A0243BB
:1007FC0013434B601F4B01221A66FFF719FE044688
:10080C001B4B1B6813F0007F0ED1FFF711FE001B72
:10081C000228F5D9032022E0154A536823F400334B
:10082C00A1680B435360DCE7002018E0002016E0C1
:10083C00012B16D00E4B5B6803F48031226A914277
:10084C0011D103F47013626A93420ED1002006E0BA
:10085C0001207047012002E0012000E0002002B0DE
:10086C0070BD0120FBE70120F9E70120F7E700BF8D
:10087C0000100240000042420F4B5B6803F00C0278
:10088C00082A01D00D487047C3F383420C49885C99
:10089C0013F4803F0BD0084B5B68C3F34043094A09
:1008AC00D35C064A02FB00F0B0FBF3F07047064B3A
:1008BC0003FB00F0704700BF0010024000127A00EA
:1008CC00101000080C10000800093D00002800F072
:1008DC00A08070B50D460446524B1B6803F007030D
:1008EC008B420BD24F4A136823F007030B43136060
:1008FC00136803F007038B4240F08D80236813F0DC
:10090C00020F17D013F0040F04D0474A536843F476
:10091C00E0635360236813F0080F04D0424A536815
:10092C0043F460535360404A536823F0F003A168CA
:10093C000B435360236813F0010F31D06368012B14
:10094C0020D0022B25D0384A126812F0020F64D046
:10095C0035494A6822F0030213434B60FFF768FDE8
:10096C000646314B5B6803F00C036268B3EB820FF5
:10097C0016D0FFF75DFD801B41F288339842F0D909
:10098C00032045E0284A126812F4003FE0D1012010
:10099C003EE0254A126812F0007FD9D1012037E0E1
:1009AC00204B1B6803F00703AB420AD91D4A13689E
:1009BC0023F007032B431360136803F00703AB42C8
:1009CC002DD1236813F0040F06D0174A536823F473
:1009DC00E063E1680B435360236813F0080F07D002
:1009EC00114A536823F46053216943EAC1035360ED
:1009FC00FFF742FF0C4B5B68C3F303130B4AD35C4A
:100A0C00D8400B4B18600B4B1868FFF7CDFC00203F
:100A1C0070BD012070470120FAE70120F8E70120A2
:100A2C00F6E700BF00200240001002402010000832
:100A3C000800002004000020002808DB0901C9B2CE
:100A4C0000F1604000F5614080F80013704700F041
:100A5C000F000901C9B2014B1954704714ED00E0A5
:100A6C0000B500F00700C0F1070CBCF1040F28BF63
:100A7C004FF0040C031D062B0FD9C31E4FF0FF3E85
:100A8C000EFA0CF021EA000199400EFA03FE22EA5C
:100A9C000E0241EA02005DF804FB0023EEE70000C1
:100AAC00074AD36823F4E0631B041B0C000200F418
:100ABC00E060034343F0BF6343F40033D3607047FB
:100ACC0000ED00E010B50446054BD868C0F30220D9
:100ADC00FFF7C6FF01462046FFF7AEFF10BD00BF73
:100AEC0000ED00E00138B0F1807F0BD24FF0E02335
:100AFC005861054AF02182F82310002098610722E2
:100B0C001A6170470120704700ED00E0704708B58E
:100B1C0000F09EF800F01CF800F05CF808BD08B579
:100B2C0000F06AF808BD0000014BFF221A707047F4
:100B3C002C000020054B93F90030042B05DC01330D
:100B4C005BB2024A13701A44507070472C0000209C
:100B5C0010B501210F4B197000220F4B1A600F4B6F
:100B6C00DB610F4803600F4803600F4803600F48B8
:100B7C0003605A720E4898611A601972FFF7D4FF1D
:100B8C00052404E02046FFF7D5FF013C64B2002C9D
:100B9C00F8DC10BD330000200401002044000020CC
:100BAC003C000020400000203800002034000020D1
:100BBC00610C0008014B1868704700BF4000002012
:100BCC000048704744000020014B1878704700BF64
:100BDC003300002008B5FFF7F7FF00B908BDFFF799
:100BEC00E9FF034B1860FFF7EBFF024B1860F5E7CA
:100BFC001001002008010020124B00221A60124B39
:100C0C001868F0B1114B1B68CBB110B4C3691C460A
:100C1C0002E0DB69984208D0617A5A7A9142F8D2A4
:100C2C00084A13601C46DB69F4E7064B1B681BB1D2
:100C3C00044B186810BC7047024B1C60F8E7184650
:100C4C00704770470C0100201001002008010020A3
:100C5C0000207047FEE70000012909D01B4B984289
:100C6C0021D01B4B984224D01A4B984227D0704766
:100C7C00164B98420BD0164B98420ED0154B9842FF
:100C8C00F5D1154A936943F0100393617047124AEA
:100C9C00936943F00403936170470F4A936943F0DF
:100CAC000803936170470C4A936923F00403936122
:100CBC007047094A936923F0080393617047064A09
:100CCC00936923F010039361D1E700BF0008014042
:100CDC00000C01400010014000100240F8B5054620
:100CEC0004794679877901210068FFF7B5FF072C55
:100CFC0009D82B68A400E4B25EB9012F18D0022FDA
:100D0C0022D1082615E02B680433083CA400E4B279
:100D1C00F2E7032F1AD8DFE807F00C02050846F0BB
:100D2C00040606E046F0080603E046F00C0600E078
:100D3C0004261A680F21A14022EA01021A601A68DF
:100D4C00A64032431A60F8BD0026F2E70026F0E711
:100D5C0010B582B0094C00940D238DF80430022399
:100D6C008DF8053000238DF806306846FFF7B6FF86
:100D7C004FF40053236102B010BD00BF00100140BE
:100D8C000B4A936943F0040393610A4B5A6822F0AF
:100D9C00F0025A605A6842F0B0025A605A6822F463
:100DAC0070625A605A6842F480625A60704700BFA1
:100DBC000010024000080140012909D01B4B984249
:100DCC0021D01B4B984224D01A4B984227D0704705
:100DDC00164B98420BD0164B98420ED0154B98429E
:100DEC00F5D1154AD36943F48023D3617047124A75
:100DFC00936943F48043936170470F4AD36943F47A
:100E0C000033D36170470C4A936923F48043936198
:100E1C007047094AD36923F40033D3617047064AFB
:100E2C00D36923F48023D361D1E700BF003801409C
:100E3C0000440040004800400010024000B5114B37
:100E4C0098421CD0104B4FF0640C0CFB03F30901BF
:100E5C00B3FBF1F30D4AA2FB03E149090CFB11337F
:100E6C001B013233A2FB03C25209B3F5C86F01D385
:100E7C000131002242EA011282605DF804FB044B4E
:100E8C00E1E700BF00380140005125021F85EB51FE
:100E9C0000A24A0410B5044601210068FFF78CFF3C
:100EAC002268214B9A421FD0627B1203A37B012B39
:100EBC001DD0022B1ED023790BB1022B01D142F095
:100ECC000802013BDBB2012B17D92368DA60237BC4
:100EDC001B0322681361E37B012B11D0022B1DD065
:100EEC00032B1ED000220DE0FFF74AFFDCE742F493
:100EFC008062E0E742F4C062DDE742F00402E4E71E
:100F0C004FF4007223685A61A1682068FFF796FFBE
:100F1C002268D36843F40053D36010BD4FF4807241
:100F2C00F0E74FF44072EDE700380140036813F02E
:100F3C00800FFBD04160036813F0400FFBD070476B
:100F4C0038B505460C4603E02846FFF7EFFF0134A1
:100F5C0021780029F8D138BDFFF7D8FD0B480C4992
:100F6C000C4A002302E0D458C4500433C4188C42F9
:100F7C00F9D3094A094C002301E013600432A24260
:100F8C00FBD3FFF701F9FFF7ABF970470000002026
:100F9C000C000020381000080C0000201401002068
:100FAC00FEE70000F8B500BFF8BC08BC9E467047D1
:0C0FBC00F8B500BFF8BC08BC9E467047AA
:100FC8004368726F6E6F7352544F5320626F6F7421
:100FD80065640D0A000000004B65726E656C20693F
:100FE8006E697469616C697A65640D0A00000000B5
:100FF8004B65726E656C20737461727465640D0A5A
:1010080000000000010200000203040506070809A9
:101018000A0B0C0D0E0F101000000000000000005D
:08102800010203040607080998
:04103000750100083E
:041034004D01000862
:0C103800010000001000000000127A000F
:0400000508000F657B
:00000001FF
